S01900006C65645F706F74656E74696F6D657465722E73726563E8
S11300000C944D000C945F000C945F000C945F0002
S11300100C945F000C945F000C945F000C945F00E0
S11300200C945F000C945F000C945F000C945F00D0
S11300300C945F000C945F000C945F000C945F00C0
S11300400C945F000C945F000C945F000C945F00B0
S11300500C945F000C94D6010C945F000C945F0028
S11300600C945F000C945F000C945F00084AD73B2B
S11300703BCE016E84BCBFFDC12F3D6C74319ABD73
S113008056833DDA3D00C77F11BED9E4BB4C3E9197
S11300906BAAAABE000000803F0011241FBECFEF50
S11300A0D4E0DEBFCDBF21E0A0E0B1E001C01D92ED
S11300B0A430B207E1F70E9401020C945C060C9490
S11300C000002F923F924F925F926F927F928F9295
S11300D09F92AF92BF92CF92DF92EF92FF920F93D3
S11300E01F93CF93DF93CDB7DEB762970FB6F89423
S11300F0DEBF0FBECDBFE982FA820B831C832D8342
S11301003E834F83588769877A878B879C8789804A
S11301109A80AB80BC80CD80DE80EF80F884162F7F
S1130120072F782E692E20E030E0A901C701B6011F
S11301300E94C403882309F4C6C020E030E044EBE5
S113014053E4C501B4010E94C403882309F4CDC05B
S113015020E030E040E752E4C501B4010E94C90345
S11301604B015C010E9409060E943B047E876D8757
S1130170072E000C880B990B0E9473049B01AC01A1
S1130180C501B4010E9428036F87788B898B9A8BF1
S1130190A701960160E070E080E89FE30E942803D5
S11301A0212F302F472D562D0E945205562E472EB3
S11301B0382E292EA70196016F85788989899A8915
S11301C00E9452059B01AC0160E070E080E89FE36F
S11301D00E942803212F302F472D562D0E945205AF
S11301E0862E972EA82EB92E2F85388949895A89AB
S11301F060E070E080E89FE30E942803A701960175
S11302000E9452059B01AC0160E070E080E89FE32E
S11302100E942803212F302F472D562D0E9452056E
S11302202D853E852230310519F144F4211531051F
S113023009F452C02130310551F06DC02D853E8541
S11302402330310531F124303105A1F164C0312F5F
S1130250202F972D862D182D092D7A2C6B2C852C6B
S1130260942CA32CB22C532E422E392E282E53C05C
S1130270862E972EA82EB92E312F202F972D862D1E
S1130280152D042D732C622C532E422E392E282E1C
S113029042C0312F202F972D862D152D042D732C20
S11302A0622C582C492C3A2C2B2C832E922EA92EBE
S11302B0B82E31C0812E902EA72CB62C162F072FC6
S11302C0782E692E28C0812E902EA72CB62C512E64
S11302D0402E372C262C1FC0852C942CA32CB22CFA
S11302E0562E472E382E292E16C0A701960160E0FF
S11302F070E080E89FE30E942803212F302F472DD0
S1130300562D0E945205562E472E382E292E862E03
S1130310972EA82EB92E20E030E04FE753E4612F4A
S1130320702F872D962D0E9452050E944204162F8D
S113033020E030E04FE753E4652D742D832D922D9A
S11303400E9452050E944204062F20E030E04FE74D
S113035053E4682D792D8A2D9B2D0E9452050E940D
S11303604204862F612F702F62960FB6F894DEBF79
S11303700FBECDBFDF91CF911F910F91FF90EF90F2
S1130380DF90CF90BF90AF909F908F907F906F90B1
S11303905F904F903F902F900895789410927C0036
S11303A08FEE80937A0010927B0008951F920F9233
S11303B00FB60F9211242F938F939F9380917800FF
S11303C02091790090917C0091110AC090E0922BC9
S11303D0909303018093020181E080937C0008C024
S11303E090E0922B909301018093000110927C0085
S11303F0F8949F918F912F910F900FBE0F901F90A3
S11304001895CF93DF93CDB7DEB76F970FB6F894F7
S1130410DEBF0FBECDBF0E94B9020E94C0020E947F
S1130420C8020E94CD01609102017091030180E035
S113043090E00E94710420E030E040E054E40E9427
S1130440280320E030E040E05BE30E945205698B22
S11304507A8B8B8B9C8B609100017091010180E001
S113046090E00E94710420E030E040E054E40E94F7
S1130470280320E030E040E05BE30E9452056D87F2
S11304807E878F87988BC988DA88EB88FC8889886F
S11304909A88AB88BC884D845E846F8478888D8507
S11304A09E85AF85B889888F998FAA8FBB8FA50148
S11304B09401C701B6010E9452056C8F7D8F8E8F07
S11304C09F8FA5019401C701B6010E9452056B01DB
S11304D07C01288D398D4A8D5B8DC301B2010E9448
S11304E052059B01AC01C701B6010E9429030E9479
S11304F0C505F62EB72EC82ED92E6D857E858F851F
S1130500988929893A894B895C890E94C9030E9488
S11305109503E62E462F572F682F792F49835A8348
S11305206B837C831D821E821F8218866F2D8F2D04
S11305309B2DAC2DBD2D89879A87AB87BC87FA800C
S11305400B811C8120E03E814F8158857A858B8503
S11305509C850E9461006F8B8E8B7D8B8F890E949E
S1130560D0028E890E94EC028D890E940B0378943C
S11305705ACF80E48AB983E884BD83E085BD0895B9
S1130580219A81E8809380008FE080938100089510
S1130590239A83E88093B00083E08093B1000895A8
S11305A0682F70E080E090E00E94730420E030E067
S11305B040E05FE30E94520520E030E04FE753E45F
S11305C00E94520520E030E048EC52E40E94C90346
S11305D00E94420467BD0895682F70E080E090E0B7
S11305E00E94730420E030E040E05FE30E94520583
S11305F020E030E04FE753E40E94520520E030E071
S113060048EC52E40E94C9030E944204709389009A
S1130610609388000895682F70E080E090E00E9465
S1130620730420E030E040E05FE30E94520520E0E4
S113063030E04FE753E40E94520520E030E048ECFC
S113064052E40E94C9030E9442046093B3000895D7
S11306505058BB27AA270E9440030C9410050E94FF
S1130660020538F00E94090520F039F49F3F19F47F
S113067026F40C94D8040EF4E095E7FB0C94D20411
S1130680E92F0E94210558F3BA17620773078407FC
S1130690950720F079F4A6F50C9443050EF4E09543
S11306A00B2EBA2FA02D0B01B90190010C01CA0128
S11306B0A0011124FF27591B99F0593F50F4503ED3
S11306C068F11A16F040A22F232F342F4427585FC5
S11306D0F3CF469537952795A795F0405395C9F7DD
S11306E07EF41F16BA0B620B730B840BBAF0915095
S11306F0A1F0FF0FBB1F661F771F881FC2F70EC034
S1130700BA0F621F731F841F48F487957795679506
S1130710B795F7959E3F08F0B0CF9395880F08F0F2
S11307209927EE0F979587950895DF93DD27B92FC5
S1130730BF7740E85FE31616170648075B0718F40F
S1130740D92F0E944A059F938F937F936F930E94A2
S11307500506ECE6F0E00E94DB040E9410052F91F0
S11307603F914F915F910E946505DD2351F09058B0
S1130770A2EA2AED3FE049EC5FE3D0785D270E94CE
S11307804003DF910C9410050E94AE0408F481E04C
S113079008950E94DD030C9410050E94090558F089
S11307A00E94020540F029F45F3F29F00C94D20422
S11307B051110C9444050C94D8040E94210568F34B
S11307C09923B1F3552391F3951B550BBB27AA2706
S11307D062177307840738F09F5F5F4F220F331F40
S11307E0441FAA1FA9F335D00E2E3AF0E0E832D008
S11307F091505040E695001CCAF72BD0FE2F29D00B
S1130800660F771F881FBB1F261737074807AB07DC
S1130810B0E809F0BB0B802DBF01FF2793585F4F51
S11308203AF09E3F510578F00C94D2040C944405A0
S11308305F3FE4F3983ED4F3869577956795B79533
S1130840F7959F5FC9F7880F911D9695879597F93E
S11308500895E1E0660F771F881FBB1F62177307B7
S11308608407BA0720F0621B730B840BBA0BEE1FCC
S113087088F7E09508950E9442046894B1110C949D
S1130880440508950E94290588F09F5798F0B92FD0
S11308909927B751B0F0E1F0660F771F881F991FB1
S11308A01AF0BA95C9F714C0B13091F00E9443050B
S11308B0B1E008950C944305672F782F8827B85F1B
S11308C039F0B93FCCF3869577956795B395D9F709
S11308D03EF490958095709561957F4F8F4F9F4F13
S11308E00895E89409C097FB3EF49095809570951F
S11308F061957F4F8F4F9F4F9923A9F0F92F96E968
S1130900BB279395F695879577956795B795F111DC
S1130910F8CFFAF4BB0F11F460FF1BC06F5F7F4F79
S11309208F4F9F4F16C0882311F096E911C077238B
S113093021F09EE8872F762F05C0662371F096E894
S1130940862F70E060E02AF09A95660F771F881F63
S1130950DAF7880F9695879597F90895990F000807
S1130960550FAA0BE0E8FEEF16161706E807F9077D
S1130970C0F012161306E407F50798F0621B730B18
S1130980840B950B39F40A2661F0232B242B252B99
S113099021F408950A2609F4A140A6958FEF811D3C
S11309A0811D089597F99F6780E870E060E00895DD
S11309B09FEF80EC0895DF93CF931F930F93FF92E3
S11309C0EF92DF927B018C01689406C0DA2EEF016E
S11309D00E946505FE01E894A59125913591459104
S11309E05591A6F3EF010E944003FE019701A8016F
S11309F0DA9469F7DF90EF90FF900F911F91CF91F8
S1130A00DF91089500240A9416161706180609069D
S1130A10089500240A941216130614060506089570
S1130A20092E0394000C11F4882352F0BB0F40F4F8
S1130A30BF2B11F460FF04C06F5F7F4F8F4F9F4F38
S1130A40089557FD9058440F551F59F05F3F71F0BA
S1130A504795880F97FB991F61F09F3F79F0879521
S1130A600895121613061406551FF2CF4695F1DFAA
S1130A7008C0161617061806991FF1CF869571053A
S1130A80610508940895E894BB2766277727CB016E
S1130A9097F908959B01AC0160E070E080E89FE362
S1130AA00C94C9030E9465050C9410050E9402056C
S1130AB038F00E94090520F0952311F00C94D2041B
S1130AC00C94D80411240C9444050E94210570F35D
S1130AD0959FC1F3950F50E0551F629FF001729FDF
S1130AE0BB27F00DB11D639FAA27F00DB11DAA1FEE
S1130AF0649F6627B00DA11D661F829F2227B00D3B
S1130B00A11D621F739FB00DA11D621F839FA00DC5
S1130B10611D221F749F3327A00D611D231F849F15
S1130B20600D211D822F762F6A2F11249F5750406C
S1130B309AF0F1F088234AF0EE0FFF1FBB1F661FE7
S1130B40771F881F91505040A9F79E3F510580F0B0
S1130B500C94D2040C9444055F3FE4F3983ED4F320
S1130B60869577956795B795F795E7959F5FC1F754
S1130B70FE2B880F911D9695879597F9089519F482
S1130B8016F40C94D8040C942F060E942905B8F38B
S1130B909923C9F3B6F39F57550B87FF0E943D066F
S1130BA00024A0E640EA900180585695979528F4D1
S1130BB0805C660F771F881F20F0261737074807C9
S1130BC030F4621B730B840B202931294A2BA69520
S1130BD017940794202531254A2758F7660F771F65
S1130BE0881F20F026173707480730F4620B730B71
S1130BF0840B200D311D411DA09581F7B901842F6F
S1130C009158880F9695879508959B01AC010C9493
S1130C1052050E94440630F09F3710F40C944405AA
S1130C200C9414060C942F06882371F4772321F076
S1130C309850872B762F07C0662311F499270DC08F
S1130C409051862B70E060E02AF09A95660F771F2A
S1130C50881FDAF7880F9695879597F908959F3F2F
S1130C6031F0915020F4879577956795B795880F63
S1130C70911D9695879597F9089591505040660F68
S1130C80771F881FD2F708950E942905A0F0BEE7B8
S1130C90B91788F4BB279F3860F41616B11D672F67
S1130CA0782F8827985FF7CF869577956795B11D3C
S10F0CB093959639C8F30895F894FFCF8B
S9030000FC
