S01900006C65645F706F74656E74696F6D657465722E73726563E8
S11300000C944D000C945F000C945F000C945F0002
S11300100C945F000C945F000C945F000C945F00E0
S11300200C945F000C945F000C945F000C945F00D0
S11300300C945F000C945F000C945F000C945F00C0
S11300400C945F000C945F000C945F000C945F00B0
S11300500C945F000C94ED000C945F000C945F0012
S11300600C945F000C945F000C945F00084AD73B2B
S11300703BCE016E84BCBFFDC12F3D6C74319ABD73
S113008056833DDA3D00C77F11BED9E4BB4C3E9197
S11300906BAAAABE000000803F0011241FBECFEF50
S11300A0D4E0DEBFCDBF21E0A0E0B1E001C01D92ED
S11300B0A430B207E1F70E9418010C94F9040C94DF
S11300C00000EF92FF921F93CF93DF93182F7111CB
S11300D003C0682F782F72C09FEB699F912D112464
S11300E0929596959770A82FB0E0472F50E0EFEFC8
S11300F0F0E09F01241B350B2A9FE0012B9FD00DBC
S11301003A9FD00D1124262F30E06BE2969F2019E0
S113011031091124622F660F260F220F30E0429F0F
S1130120B001439F700D529F700D1124672F770FFC
S1130130770B7F01E61AF70AB7016A9F70016B9F7C
S1130140F00C7A9FF00C1124BF01621B730B649FA7
S11301509001659F300D749F300D1124232F330FB0
S1130160330BE21BF30BEA9F9001EB9F300DFA9FD8
S1130170300D1124923079F028F49923D9F091307C
S113018031F015C0933059F0943069F010C09D2FB0
S1130190782F1F2D11C0932F782F1D2F0DC0982F4E
S11301A07F2D1D2F09C0982F7D2F132F05C09F2D44
S11301B07D2F02C09D2F732F612F892FDF91CF9147
S11301C01F91FF90EF900895789410927C008FEE29
S11301D080937A0010927B0008951F920F920FB6BD
S11301E00F9211242F938F939F93809178002091E5
S11301F0790090917C0091110AC090E0922B909329
S113020003018093020181E080937C0008C090E0A8
S1130210922B909301018093000110927C00F8943A
S11302209F918F912F910F900FBE0F901F90189553
S1130230CF93DF93CDB7DEB763970FB6F894DEBFE5
S11302400FBECDBF0E94C4010E94CB010E94D30106
S11302500E94E400609102017091030180E090E04B
S11302600E94700320E030E040E054E40E94330236
S113027020E030E040E05BE30E942D046D837E8348
S11302808F839887609100017091010180E090E074
S11302900E94700320E030E040E054E40E94330206
S11302A020E030E040E05BE30E942D0469837A8320
S11302B08B839C83CD80DE80EF80F8848D809E804C
S11302C0AF80B88449805A806B807C8089819A8110
S11302D0AB81BC818C879D87AE87BF87A5019401C4
S11302E0C701B6010E942D04688B798B8A8B9B8B86
S11302F0A5019401C701B6010E942D046B017C0184
S11303002C853D854E855F85C301B2010E942D0475
S11303109B01AC01C701B6010E9434020E94A004F3
S11303204B015C0169817A818B819C812D813E81A5
S11303304F8158850E94CF020E94A00220E030E045
S11303404FE753E40E942D040E944103F62E20E05F
S113035030E04FE753E4C501B4010E942D040E942C
S11303604103762F6F2D8FEF0E9461006B878A8780
S113037079878B850E94DB018A850E94F701898534
S11303800E941602789466CF80E48AB983E884BD1B
S113039083E085BD0895219A81E8809380008BE0F5
S11303A0809381000895239A83E88093B00083E0CA
S11303B08093B1000895682F70E080E090E00E947F
S11303C0720320E030E040E05FE30E942D0420E06F
S11303D030E04FE753E40E942D0420E030E048EC85
S11303E052E40E94CF020E94410367BD0895682F22
S11303F070E080E090E00E94720320E030E040E092
S11304005FE30E942D0420E030E04FE753E40E94B4
S11304102D0420E030E048EC52E40E94CF020E9418
S1130420410370938900609388000895682F70E0F9
S113043080E090E00E94720320E030E040E05FE35F
S11304400E942D0420E030E04FE753E40E942D0485
S113045020E030E048EC52E40E94CF020E944103C5
S11304606093B30008955058BB27AA270E944B02FB
S11304700C94EB030E94DD0338F00E94E40320F0A7
S113048039F49F3F19F426F40C94B3030EF4E09569
S1130490E7FB0C94AD03E92F0E94FC0358F3BA1751
S11304A0620773078407950720F079F4A6F50C9486
S11304B01E040EF4E0950B2EBA2FA02D0B01B901EA
S11304C090010C01CA01A0011124FF27591B99F0C6
S11304D0593F50F4503E68F11A16F040A22F232FD2
S11304E0342F4427585FF3CF469537952795A79522
S11304F0F0405395C9F77EF41F16BA0B620B730BC9
S1130500840BBAF09150A1F0FF0FBB1F661F771F39
S1130510881FC2F70EC0BA0F621F731F841F48F4EE
S1130520879577956795B795F7959E3F08F0B0CF77
S11305309395880F08F09927EE0F9795879508955E
S1130540DF93DD27B92FBF7740E85FE31616170660
S113055048075B0718F4D92F0E9425049F938F93B3
S11305607F936F930E94E004ECE6F0E00E94B603F0
S11305700E94EB032F913F914F915F910E944004A1
S1130580DD2351F09058A2EA2AED3FE049EC5FE305
S1130590D0785D270E944B02DF910C94EB030E94FC
S11305A0E3020C94EB030E94E40358F00E94DD0381
S11305B040F029F45F3F29F00C94AD0351110C94E1
S11305C01F040C94B3030E94FC0368F39923B1F352
S11305D0552391F3951B550BBB27AA276217730765
S11305E0840738F09F5F5F4F220F331F441FAA1FF9
S11305F0A9F335D00E2E3AF0E0E832D091505040B5
S1130600E695001CCAF72BD0FE2F29D0660F771F62
S1130610881FBB1F261737074807AB07B0E809F048
S1130620BB0B802DBF01FF2793585F4F3AF09E3FCD
S1130630510578F00C94AD030C941F045F3FE4F370
S1130640983ED4F3869577956795B795F7959F5F10
S1130650C9F7880F911D9695879597F90895E1E05C
S1130660660F771F881FBB1F621773078407BA07BB
S113067020F0621B730B840BBA0BEE1F88F7E09516
S113068008950E94040488F09F5798F0B92F992781
S1130690B751B0F0E1F0660F771F881F991F1AF069
S11306A0BA95C9F714C0B13091F00E941E04B1E0AC
S11306B008950C941E04672F782F8827B85F39F0AB
S11306C0B93FCCF3869577956795B395D9F73EF402
S11306D090958095709561957F4F8F4F9F4F0895AA
S11306E0E89409C097FB3EF49095809570956195C8
S11306F07F4F8F4F9F4F9923A9F0F92F96E9BB277E
S11307009395F695879577956795B795F111F8CFF9
S1130710FAF4BB0F11F460FF1BC06F5F7F4F8F4F64
S11307209F4F16C0882311F096E911C0772321F05A
S11307309EE8872F762F05C0662371F096E8862FF2
S113074070E060E02AF09A95660F771F881FDAF749
S1130750880F9695879597F9089597F99F6780E88C
S113076070E060E008959FEF80EC0895DF93CF93ED
S11307701F930F93FF92EF92DF927B018C01689499
S113078006C0DA2EEF010E944004FE01E894A59110
S11307902591359145915591A6F3EF010E944B02A5
S11307A0FE019701A801DA9469F7DF90EF90FF90BA
S11307B00F911F91CF91DF91089500240A9416168A
S11307C0170618060906089500240A94121613063B
S11307D0140605060895092E0394000C11F48823C9
S11307E052F0BB0F40F4BF2B11F460FF04C06F5FE5
S11307F07F4F8F4F9F4F089557FD9058440F551FBB
S113080059F05F3F71F04795880F97FB991F61F08E
S11308109F3F79F087950895121613061406551F05
S1130820F2CF4695F1DF08C0161617061806991F71
S1130830F1CF86957105610508940895E894BB2766
S113084066277727CB0197F908959B01AC0160E0F7
S113085070E080E89FE30C94CF020E9440040C9463
S1130860EB030E94DD0338F00E94E40320F095239B
S113087011F00C94AD030C94B30311240C941F04D5
S11308800E94FC0370F3959FC1F3950F50E0551F30
S1130890629FF001729FBB27F00DB11D639FAA27D1
S11308A0F00DB11DAA1F649F6627B00DA11D661F20
S11308B0829F2227B00DA11D621F739FB00DA11D41
S11308C0621F839FA00D611D221F749F3327A00DFB
S11308D0611D231F849F600D211D822F762F6A2F97
S11308E011249F5750409AF0F1F088234AF0EE0FFC
S11308F0FF1FBB1F661F771F881F91505040A9F729
S11309009E3F510580F00C94AD030C941F045F3F8F
S1130910E4F3983ED4F3869577956795B795F79564
S1130920E7959F5FC1F7FE2B880F911D96958795DC
S113093097F9089519F416F40C94B3030C94E40491
S11309400E940404B8F39923C9F3B6F39F57550BD7
S113095087FF0E94F2040024A0E640EA9001805838
S11309605695979528F4805C660F771F881F20F0B2
S113097026173707480730F4621B730B840B2029B2
S113098031294A2BA69517940794202531254A2707
S113099058F7660F771F881F20F026173707480778
S11309A030F4620B730B840B200D311D411DA09597
S11309B081F7B901842F9158880F969587950895EA
S11309C09B01AC010C942D049F3F31F0915020F415
S11309D0879577956795B795880F911D9695879517
S11309E097F9089591505040660F771F881FD2F7EA
S10909F00895F894FFCF06
S9030000FC
