S01900006C65645F706F74656E74696F6D657465722E73726563E8
S11300000C944D000C945F000C945F000C945F0002
S11300100C945F000C945F000C945F000C945F00E0
S11300200C945F000C945F000C945F000C945F00D0
S11300300C945F000C945F000C945F000C945F00C0
S11300400C945F000C945F000C945F000C945F00B0
S11300500C945F000C94E1010C945F000C945F001D
S11300600C945F000C945F000C945F00084AD73B2B
S11300703BCE016E84BCBFFDC12F3D6C74319ABD73
S113008056833DDA3D00C77F11BED9E4BB4C3E9197
S11300906BAAAABE000000803F0011241FBECFEF50
S11300A0D4E0DEBFCDBF21E0A0E0B1E001C01D92ED
S11300B0A430B207E1F70E940C020C946E060C9473
S11300C000004F925F926F927F928F929F92AF92B5
S11300D0BF92CF92DF92EF92FF920F931F93CF9331
S11300E0DF93D22FC32FB42EA52E9E2C8F2C20E06D
S11300F030E044EB53E40E94B0046B017C0120E047
S113010030E0A9016D2F7C2F8B2D9A2D0E94C20304
S113011088238CF020E030E040E85FE36D2F7C2FF3
S11301208B2D9A2D0E94A305181654F07D2E6C2E4B
S1130130CB2DDA2D09C0712C612CC0E0D0E004C0B5
S1130140712C612CC0E8DFE320E030E0A901692DC7
S1130150782D802F912F0E94C20388237CF020E009
S113016030E040E85FE3692D782D802F912F0E94C5
S1130170A305181644F0B02EA12E0EC0912C812C8C
S1130180B12CA12C09C0912C812C6894BB24B7F804
S11301900F2EFFE3AF2EF02D272D362D4C2F5D2F84
S11301A0692D782D8B2D9A2D0E94B005D62FC72F3F
S11301B0182F092F20E030E040E752E4C701B601D0
S11301C00E94C70320E030E040E050E40E94B00405
S11301D020E030E040E85FE30E94E3029B01AC01D1
S11301E05F7760E070E080E89FE30E94E3022D2FD8
S11301F03C2F412F502F0E94B005762E672E582E8B
S1130200492E2D2F3C2F412F502F692D782D8B2DCA
S11302109A2D0E94E3024B015C0120E030E0A90129
S1130220C701B6010E94A30588235CF020E030E0FA
S113023040E752E4C701B6010E94C20388230CF4CC
S11302405BC020E030E040E752E4C701B6010E9401
S1130250A30588235CF020E030E040EF52E4C701BE
S1130260B6010E94C20388230CF44FC020E030E0A2
S113027040EF52E4C701B6010E94A30588235CF055
S113028020E030E044E353E4C701B6010E94C20316
S113029088230CF455C020E030E044E353E4C70164
S11302A0B6010E94A305882354F020E030E040E723
S11302B053E4C701B6010E94C20388235CF120E025
S11302C030E040E753E4C701B6010E94A305882348
S11302D074F120E030E046E953E4C701B6010E941E
S11302E0C20388234CF57D2E6C2E512E402ED0E077
S11302F0C0E010E000E024C0D72DC62D152D042D3C
S1130300712C612C512C412C1BC0712C612C512C53
S1130310412C16C03D2F2C2F912F802FD72DC62D69
S1130320152D042D732E622E592E482E09C0D0E0AF
S1130330C0E010E000E004C0D0E0C0E010E000E065
S1130340A50194016D2F7C2F812F902F0E94E40230
S113035020E030E04FE753E40E94B0050E943904E6
S1130360D62F80E0C82FA5019401672D762D852D09
S1130370942D0E94E40220E030E04FE753E40E9411
S1130380B0050E943904CB0199278C2B9D2BDF915A
S1130390CF911F910F91FF90EF90DF90CF90BF907E
S11303A0AF909F908F907F906F905F904F90089543
S11303B0789410927C008FEE80937A0010927B00E8
S11303C008951F920F920FB60F9211242F938F93BB
S11303D09F93809178002091790090917C009111F5
S11303E00AC090E0922B909303018093020181E074
S11303F080937C0008C090E0922B9093010180933D
S1130400000110927C00F8949F918F912F910F908E
S11304100FBE0F901F901895CF93DF93CDB7DEB723
S113042060970FB6F894DEBF0FBECDBF0E94C10225
S11304300E94C8020E94D0020E94D8016091020169
S11304407091030180E090E00E94680420E030E0B5
S113045040E054E40E94E30220E030E040E05BE34B
S11304600E94B0056D837E838F839887609100011D
S11304707091010180E090E00E94680420E030E087
S113048040E054E40E94E30220E030E040E05BE31B
S11304900E94B00569837A838B839C83CD80DE8040
S11304A0EF80F8848D809E80AF80B88449805A8024
S11304B06B807C8089819A81AB81BC8189879A8792
S11304C0AB87BC87A5019401C701B6010E94B005A2
S11304D06D877E878F87988BA5019401C701B6012C
S11304E00E94B0056B017C0129853A854B855C85AA
S11304F0C301B2010E94B0059B01AC01C701B60162
S11305000E94E4020E9423064B015C012D813E817E
S11305104F81588569817A818B819C810E94630314
S11305206B017C0124EF3DEF44EB5FE3C501B401B3
S11305300E94C7034B015C012BED3FE049E450E40A
S1130540C701B6010E94C70320E030E044E353E44E
S11305500E94B005E12CF12C00E81FE3A5019401F1
S11305600E9461005C016C01E12CF12C8E2D0E9433
S1130570D8028A2D0E94DA028D2D0E94E00278941E
S11305805DCF80E48AB983E884BD83E085BD0895A6
S1130590219A81E8809380008BE080938100089504
S11305A0239A83E88093B00083E08093B100089598
S11305B087BD089590E09093890080938800089502
S11305C08093B30008955058BB27AA270E94FB02CA
S11305D00C9469050E945B0538F00E94620520F0C6
S11305E039F49F3F19F426F40C9431050EF4E09588
S11305F0E7FB0C941D05E92F0E947A0558F3BA17FE
S1130600620773078407950720F079F4A6F50C9424
S11306109C050EF4E0950B2EBA2FA02D0B01B90109
S113062090010C01CA01A0011124FF27591B99F064
S1130630593F50F4503E68F11A16F040A22F232F70
S1130640342F4427585FF3CF469537952795A795C0
S1130650F0405395C9F77EF41F16BA0B620B730B67
S1130660840BBAF09150A1F0FF0FBB1F661F771FD8
S1130670881FC2F70EC0BA0F621F731F841F48F48D
S1130680879577956795B795F7959E3F08F0B0CF16
S11306909395880F08F09927EE0F979587950895FD
S11306A00E945B0560F080E891E009F49EEF0E94EF
S11306B0620528F040E851E071F45EEF0CC00C9440
S11306C031050C949C05E92FE0780E947A0540F3EB
S11306D0092E052AB1F3261737074807590738F0BA
S11306E00E2E07F8E02569F0E025E0640AC0EF6308
S11306F007F8009407FADB01B9019D01DC01CA0186
S1130700AD01EF930E94DE030E9469050E949303EA
S11307105F91552339F02BED3FE049E450FD49EC5E
S11307200C94E4020895DF93DD27B92FBF7740E8E6
S11307305FE31616170648075B0718F4D92F0E94C3
S1130740A8059F938F937F936F930E946306ECE6B3
S1130750F0E00E9434050E9469052F913F914F916A
S11307605F910E94C305DD2351F09058A2EA2AED5F
S11307703FE049EC5FE3D0785D270E94FB02DF9104
S11307800C9469050E94F90408F481E008950E941C
S1130790DB030C9469050E94620558F00E945B0516
S11307A040F029F45F3F29F00C941D0551110C947D
S11307B09D050C9431050E947A0568F39923B1F3E1
S11307C0552391F3951B550BBB27AA276217730773
S11307D0840738F09F5F5F4F220F331F441FAA1F07
S11307E0A9F335D00E2E3AF0E0E832D091505040C3
S11307F0E695001CCAF72BD0FE2F29D0660F771F71
S1130800881FBB1F261737074807AB07B0E809F056
S1130810BB0B802DBF01FF2793585F4F3AF09E3FDB
S1130820510578F00C941D050C949D055F3FE4F38D
S1130830983ED4F3869577956795B795F7959F5F1E
S1130840C9F7880F911D9695879597F90895E1E06A
S1130850660F771F881FBB1F621773078407BA07C9
S113086020F0621B730B840BBA0BEE1F88F7E09524
S113087008950E94820588F09F5798F0B92F992710
S1130880B751B0F0E1F0660F771F881F991F1AF077
S1130890BA95C9F714C0B13091F00E949C05B1E03B
S11308A008950C949C05672F782F8827B85F39F03A
S11308B0B93FCCF3869577956795B395D9F73EF410
S11308C090958095709561957F4F8F4F9F4F0895B8
S11308D0E89409C097FB3EF49095809570956195D6
S11308E07F4F8F4F9F4F9923A9F0F92F96E9BB278C
S11308F09395F695879577956795B795F111F8CF08
S1130900FAF4BB0F11F460FF1BC06F5F7F4F8F4F72
S11309109F4F16C0882311F096E911C0772321F068
S11309209EE8872F762F05C0662371F096E8862F00
S113093070E060E02AF09A95660F771F881FDAF757
S1130940880F9695879597F908950E945B0520F086
S113095019F00E94620550F40C9431050C949D0525
S1130960E92F0E947A0588F35523B1F3E7FB621758
S1130970730784079507A8F189F3E92FFF278823D4
S11309802AF03197660F771F881FDAF7952F5527BE
S1130990442332F091505040220F331F441FD2F7AA
S11309A0BB27E91BF50B621B730B840BB109B1F276
S11309B022F4620F731F841FB11D31972AF0660F52
S11309C0771F881FBB1FEFCF9150504062F041F05A
S11309D0882332F0660F771F881F91505040C1F76B
S11309E093950C9423058695779567959F5FD9F722
S11309F0F7CF990F0008550FAA0BE0E8FEEF161683
S1130A001706E807F907C0F012161306E407F507FE
S1130A1098F0621B730B840B950B39F40A2661F072
S1130A20232B242B252B21F408950A2609F4A14015
S1130A30A6958FEF811D811D089597F99F6780E822
S1130A4070E060E008959F3F31F0915020F4879565
S1130A5077956795B795880F911D9695879597F922
S1130A6008959FEF80EC0895DF93CF931F930F9326
S1130A70FF92EF92DF927B018C01689406C0DA2E1C
S1130A80EF010E94C305FE01E894A59125913591DB
S1130A9045915591A6F3EF010E94FB02FE019701D7
S1130AA0A801DA9469F7DF90EF90FF900F911F91FE
S1130AB0CF91DF91089500240A941616170618069C
S1130AC00906089500240A9412161306140605064E
S1130AD00895092E0394000C11F4882352F0BB0FDF
S1130AE040F4BF2B11F460FF04C06F5F7F4F8F4F42
S1130AF09F4F089557FD9058440F551F59F05F3F7D
S1130B0071F04795880F97FB991F61F09F3F79F02B
S1130B1087950895121613061406551FF2CF4695AD
S1130B20F1DF08C0161617061806991FF1CF86952F
S1130B307105610508940895E894BB276627772713
S1130B40CB0197F908950E94F90408F48FEF0895F2
S1130B509B01AC0160E070E080E89FE30C94C70364
S1130B600E94C3050C9469050E945B0538F00E943D
S1130B70620520F0952311F00C941D050C943105A9
S1130B8011240C949D050E947A0570F3959FC1F37E
S1130B90950F50E0551F629FF001729FBB27F00D27
S1130BA0B11D639FAA27F00DB11DAA1F649F66277C
S1130BB0B00DA11D661F829F2227B00DA11D621FCB
S1130BC0739FB00DA11D621F839FA00D611D221F85
S1130BD0749F3327A00D611D231F849F600D211D69
S1130BE0822F762F6A2F11249F5750409AF0F1F0EC
S1130BF088234AF0EE0FFF1FBB1F661F771F881F55
S1130C0091505040A9F79E3F510580F00C941D056A
S1130C100C949D055F3FE4F3983ED4F38695779555
S1130C206795B795F795E7959F5FC1F7FE2B880FFA
S1130C30911D9695879597F9089519F416F40C94D7
S1130C4031050C9423050E948205B8F39923C9F356
S1130C50B6F39F57550B87FF0E9467060024A0E652
S1130C6040EA900180585695979528F4805C660F69
S1130C70771F881F20F026173707480730F4621BB8
S1130C80730B840B202931294A2BA69517940794BA
S1130C90202531254A2758F7660F771F881F20F033
S1130CA026173707480730F4620B730B840B200DAB
S1130CB0311D411DA09581F7B901842F9158880FEA
S1130CC09695879508959B01AC010C94B0059150BD
S1130CD05040660F771F881FD2F70895F894FFCF0E
S9030000FC
