S01500007265616374696F6E5F746573742E737265639B
S11300000C9436000C9453000C9453000C9453003D
S11300100C94A6000C9453000C9453000C945300BD
S11300200C9453000C9453000C9453000C94530000
S11300300C9453000C94C0000C9453000C94530083
S11300400C9453000C9453000C9453000C945300E0
S11300500C9453000C9453000C9453000C945300D0
S11300600C9453000C9453000C94530011241FBEA1
S1130070CFEFD4E0DEBFCDBF21E0A4E0B1E001C00A
S11300801D92AC30B207E1F711E0A0E0B1E0E2E884
S1130090F3E002C005900D92A430B107D9F70E9495
S11300A0CA000C94BF010C940000FC010FB6F89434
S11300B0609108017091090180910A0190910B01EE
S11300C00FBE309721F060837183828393830895F8
S11300D080E090E00E945500CB010E94510183E032
S11300E084B917B8089582E08093680081E0809312
S11300F06C00089578941092800081E080938100D0
S113010081E280936F0008958823F9F020E030E0C5
S113011091E0482F50E0415051096FEF73EDE0E357
S113012061507040E040E1F700C0000093B942170D
S1130130530739F482E085B90E947A000E94730063
S113014008952F5F3F4F281740F308951F920F9291
S11301500FB60F9211248F939F9380910601909173
S113016007019695879596958795909305018093B9
S113017004019F918F910F900FBE0F901F901895BF
S11301801F920F920FB60F9211240F900FBE0F9073
S11301901F9018950E944C01EC010E946800CE014A
S11301A06AE070E00E94D8008F5F0E948400FFCF55
S11301B097FB072E16F4009407D077FD09D00E9410
S11301C0EC0007FC05D03EF4909581959F4F08956F
S11301D0709561957F4F0895AA1BBB1B51E107C021
S11301E0AA1FBB1FA617B70710F0A61BB70B881FC3
S11301F0991F5A95A9F780959095BC01CD01089552
S11302008F929F92AF92BF92CF92DF92EF92FF9222
S1130210CF93DF93EC01688179818A819B81611599
S113022071058105910521F464E279ED8BE597E090
S11302302DE133EF41E050E00E945C0149015A0195
S11302409B01AC01A7EAB1E40E947B016B017C0134
S1130250ACEEB4EFA50194010E948901DC01CB014D
S11302608C0D9D1DAE1DBF1DB7FF03C00197A109D5
S1130270B04888839983AA83BB839F77DF91CF910A
S1130280FF90EF90DF90CF90BF90AF909F908F90B2
S113029008950E940001089580E091E00E94000109
S11302A00895A0E0B0E08093000190930101A09331
S11302B00201B09303010895052E97FB1EF40094E8
S11302C00E94730157FD07D00E948E0107FC03D0E2
S11302D04EF40C94730150954095309521953F4F01
S11302E04F4F5F4F089590958095709561957F4F1E
S11302F08F4F9F4F08950E94B001A59F900DB49F0A
S1130300900DA49F800D911D11240895B7FF0C94A6
S11303107B010E947B01821B930B0895A1E21A2E9C
S1130320AA1BBB1BFD010DC0AA1FBB1FEE1FFF1F95
S1130330A217B307E407F50720F0A21BB30BE40BE5
S1130340F50B661F771F881F991F1A9469F760952C
S11303507095809590959B01AC01BD01CF010895E6
S1130360A29FB001B39FC001A39F700D811D1124F2
S1130370911DB29F700D811D1124911D0895F89453
S1050380FFCFA9
S10703820100000072
S9030000FC
