S00C0000554152542E73726563DC
S11300000C9436000C9440000C9440000C94400076
S11300100C9440000C9440000C9440000C9440005C
S11300200C9440000C9440000C9440000C9440004C
S11300300C9440000C9440000C9440000C9440003C
S11300400C9440000C9440000C9440000C9440002C
S11300500C9440000C9440000C9440000C9440001C
S11300600C9440000C9440000C94400011241FBEDA
S1130070CFEFD4E0DEBFCDBF0E9461000C946800D6
S11300800C94000087E690E09093C5008093C40030
S1130090E1ECF0E0808188608083808180618083EE
S11300A00895E0ECF0E0908195FFFDCF8093C600C9
S11300B00895E0ECF0E080818823ECF78091C6009D
S11300C008950E9442000E9459000E945100FBCFF3
S10700D0F894FFCFCE
S9030000FC
