S0180000747269616C5F6578616D5F74686972642E737265636C
S11300000C9436000C9448000C9448000C94650041
S11300100C9448000C9448000C9448000C9448003C
S11300200C9448000C9448000C9448000C9448002C
S11300300C9448000C9448000C9448000C9448001C
S11300400C9448000C9448000C9448000C9448000C
S11300500C9448000C9448000C9448000C944800FC
S11300600C9448000C9448000C94480011241FBEC2
S1130070CFEFD4E0DEBFCDBF21E0A0E0B1E001C00E
S11300801D92A130B207E1F70E9474000C94BE00E7
S11300900C9400007894E8E6F0E08081816080832D
S11300A0EBE6F0E080818068808383E884BD85B5D9
S11300B0826085BD08952FEF829FC001112464E6FC
S11300C070E00E94960067BD08951F920F920FB6CC
S11300D00F9211248F9381E0809300018F910F90F0
S11300E00FBE0F901F9018950E944A00C0E08091A7
S11300F00001882341F0569AC43610F4CE5F09C03B
S11301001092000106C0CC2311F0C25011F41AB8A9
S1130110C0E08C2F0E945B002FEF83EF91E0215011
S113012080409040E1F700C00000E1CF97FB072E2C
S113013016F4009407D077FD09D00E94AA0007FCAA
S113014005D03EF4909581959F4F089570956195E3
S11301507F4F0895AA1BBB1B51E107C0AA1FBB1FF9
S1130160A617B70710F0A61BB70B881F991F5A953F
S1130170A9F780959095BC01CD010895F894FFCF1F
S9030000FC
