S01700004763634170706C69636174696F6E312E737265635B
S11300000C9436000C9440000C9440000C94400076
S11300100C9440000C9440000C9440000C9440005C
S11300200C9440000C9440000C9440000C9440004C
S11300300C9440000C9440000C9440000C9440003C
S11300400C9440000C9440000C9440000C9440002C
S11300500C9440000C9440000C9440000C9440001C
S11300600C9440000C9440000C94400011241FBEDA
S1130070CFEFD4E0DEBFCDBF0E9463000C949200AA
S11300800C94000033E020E21AC090E025B94FE759
S11300905AE166E0415050406040E1F700C0000082
S11300A09F5F8913F3CF15B89FE74AE156E091505B
S11300B040405040E1F700C00000315019F0811178
S11300C0E4CFF1CF0895CF93DF9300D000D0CDB724
S11300D0DEB780E284B9882483946894992491F8E3
S11300E06894AA24A2F86894BB24B3F8CE010196BC
S11300F06C0189829A82AB82BC828E010B5F1F4F96
S11301007601F70181917F010E944200E016F10619
S1130110C1F7F80182918F010E9442000C151D0560
S10B0120C1F7E7CFF894FFCF0B
S9030000FC
