S00F00007765656B656E642E7372656332
S11300000C9436000C9474000C94A0000C945300CF
S11300100C9453000C9453000C9453000C94530010
S11300200C9453000C9453000C9453000C94530000
S11300300C9453000C94BC000C9453000C94530087
S11300400C9453000C9453000C9453000C945300E0
S11300500C9453000C9453000C9453000C945300D0
S11300600C9453000C9453000C94530011241FBEA1
S1130070CFEFD4E0DEBFCDBF21E0A4E0B1E001C00A
S11300801D92AA30B207E1F711E0A0E0B1E0EAE97D
S1130090F3E002C005900D92A430B107D9F70E9495
S11300A0D3000C94CB010C940000FC010FB6F8941F
S11300B060910601709107018091080190910901F6
S11300C00FBE309721F060837183828393830895F8
S11300D080E090E00E945500CB010E945D0178947D
S11300E087E087B988B908951F920F920FB60F92CF
S11300F011242F933F934F935F936F937F938F9329
S11301009F93AF93BF93EF93FF93F89410920501DD
S11301101092040185E00E94E1000E94F500FF9125
S1130120EF91BF91AF919F918F917F916F915F916B
S11301304F913F912F910F900FBE0F901F901895E4
S11301401F920F920FB60F9211248F939F931092C8
S1130150810080910401909105018135910518F089
S113016086E088B902C085E088B99F918F910F908D
S11301700FBE0F901F9018951F920F920FB60F92FB
S113018011248F939F93809104019091050101960E
S113019090930501809304019F918F910F900FBE5E
S11301A00F901F9018950E9468000E94D800FFCFFE
S11301B0E9E6F0E080818F6080838DB383608DBB3E
S11301C00895882389F090E03FE027E038B94FEFA5
S11301D053ED60E3415050406040E1F700C000003F
S11301E028B99F5F8913F2CF089588B1837088B9C5
S11301F02FEF83ED90E3215080409040E1F700C061
S1130200000087E088B9789481E080936F001092B1
S113021080008093810008958F929F92AF92BF9245
S1130220CF92DF92EF92FF92CF93DF93EC0168813C
S113023079818A819B81611571058105910521F47C
S113024064E279ED8BE597E02DE133EF41E050E096
S11302500E94680149015A019B01AC01A7EAB1E47B
S11302600E9487016B017C01ACEEB4EFA5019401FF
S11302700E949501DC01CB018C0D9D1DAE1DBF1D9F
S1130280B7FF03C00197A109B04888839983AA8363
S1130290BB839F77DF91CF91FF90EF90DF90CF905A
S11302A0BF90AF909F908F9008950E940C01089585
S11302B080E091E00E940C010895A0E0B0E08093FA
S11302C0000190930101A0930201B09303010895EA
S11302D0052E97FB1EF400940E947F0157FD07D062
S11302E00E949A0107FC03D04EF40C947F015095B0
S11302F04095309521953F4F4F4F5F4F089590950E
S11303008095709561957F4F8F4F9F4F08950E9400
S1130310BC01A59F900DB49F900DA49F800D911DCD
S113032011240895B7FF0C9487010E948701821B52
S1130330930B0895A1E21A2EAA1BBB1BFD010DC04D
S1130340AA1FBB1FEE1FFF1FA217B307E407F50781
S113035020F0A21BB30BE40BF50B661F771F881F5D
S1130360991F1A9469F760957095809590959B01F3
S1130370AC01BD01CF010895A29FB001B39FC0019C
S1130380A39F700D811D1124911DB29F700D811DBD
S10D03901124911D0895F894FFCF85
S107039A010000005A
S9030000FC
