S01F000074696D655F6F766572666C6F775F696E746572727570742E7372656337
S11300000C9436000C9453000C9453000C9453003D
S11300100C9453000C9453000C9453000C94530010
S11300200C9453000C9453000C9453000C94530000
S11300300C9453000C9453000C9453000C945300F0
S11300400C9455000C9453000C9453000C945300DE
S11300500C9453000C9453000C9453000C945300D0
S11300600C9453000C9453000C94530011241FBEA1
S1130070CFEFD4E0DEBFCDBF11E0A0E0B1E0E4EF0C
S1130080F0E002C005900D92A030B107D9F721E04D
S1130090A0E0B1E001C01D92A130B207E1F70E94D7
S11300A075000C9478000C9400001F920F920FB608
S11300B00F9211248F93809100018F5F8093000130
S11300C08A3021F480E283B9109200018F910F905D
S11300D00FBE0F901F90189580E284B985E085BD0E
S11300E081E080936E00789408950E946C00FFCFA5
S10700F0F894FFCFAE
S9030000FC
