S00F0000737465707065722E7372656312
S11300000C943E000C9450000C9450000C9450003E
S11300100C9450000C9450000C9450000C9450001C
S11300200C9450000C9450000C9450000C9450000C
S11300300C9450000C9450000C9450000C945000FC
S11300400C9450000C9450000C9450000C945000EC
S11300500C9450000C9450000C9450000C945000DC
S11300600C9450000C9450000C9450009700A8007D
S1130070B900CA00DB00EC00FD000E0111241FBE14
S1130080CFEFD4E0DEBFCDBF21E0A0E0B1E001C0FE
S11300901D92A130B207E1F70E947C000C94630129
S11300A00C940000613069F445B121E030E0B901FD
S11300B002C0660F771F8A95E2F7CB01842B85B9BE
S11300C00895611114C045B121E030E0B90102C0C6
S11300D0660F771F8A95E2F7CB0125B1642BAB013C
S11300E030E04217530719F495B1892785B908956B
S11300F08FE084B915B808950E94780001E011E0FA
S11301000F2EF7E0FF2EF02D0127C0E0D0E0E091A4
S113011000018E2FEE0F990BAA0BBB0B88309105B3
S113012008F08DC0FC01EA5CFF4F0C945D0160E0B7
S113013080E00E94520060E0812F0E94520060E043
S113014082E00E945200612F83E00E94520087C027
S113015060E080E00E94520060E0812F0E94520023
S1130160612F82E00E945200612F83E00E945200BE
S113017076C060E080E00E94520060E0812F0E941F
S11301805200612F82E00E94520060E083E00E94EE
S1130190520065C060E080E00E945200612F812F10
S11301A00E945200612F82E00E94520060E083E0CE
S11301B00E94520054C060E080E00E945200612F0F
S11301C0812F0E94520060E082E00E94520060E0B1
S11301D083E00E94520043C0612F80E00E945200DD
S11301E0612F812F0E94520060E082E00E94520041
S11301F060E083E00E94520032C0612F80E00E94E0
S1130200520060E0812F0E94520060E082E00E9470
S1130210520060E083E00E94520021C0612F80E020
S11302200E94520060E0812F0E94520060E082E050
S11302300E945200612F83E00E94520010C060E0CF
S113024080E00E94520060E0812F0E94520060E032
S113025082E00E94520060E083E00E94520001119B
S113026006C0809100018F5F8093000105C08091DA
S113027000018150809300018091000188301CF0BE
S11302801092000104C0882314F4F09200018FE955
S11302909FE00197F1F700C000002196C11598E096
S11302A0D90709F034CF2FEF83ED90E3215080403C
S11302B09040E1F700C0000027CFEE0FFF1F05902C
S10D02C0F491E02D0994F894FFCFA7
S9030000FC
