S00B000050574D2E7372656325
S11300000C9436000C9440000C9440000C94400076
S11300100C9440000C9440000C9440000C9440005C
S11300200C9440000C9440000C9440000C9440004C
S11300300C9440000C9440000C9440000C9440003C
S11300400C9440000C9440000C9440000C9440002C
S11300500C9440000C9440000C9440000C9440001C
S11300600C9440000C9440000C94400011241FBEDA
S1130070CFEFD4E0DEBFCDBF0E9453000C949900B3
S11300800C94000080E48AB982E085BD83E884BDD5
S113009008952FEF829FC001112464E670E00E944E
S11300A0710067BD08950E9442002FEF83EC99E030
S11300B0215080409040E1F700C00000C5E001C03D
S11300C0C0E08C2F0E944900CB5F2FEF83EC99E0B6
S11300D0215080409040E1F700C00000C53680F711
S11300E0F0CF97FB072E16F4009407D077FD09D0C4
S11300F00E94850007FC05D03EF4909581959F4FA2
S11301000895709561957F4F0895AA1BBB1B51E11B
S113011007C0AA1FBB1FA617B70710F0A61BB70B73
S1130120881F991F5A95A9F780959095BC01CD0118
S10901300895F894FFCFCE
S9030000FC
