S00F00007574696C6974792E7372656301
S11300000C9436000C9440000C9440000C94400076
S11300100C9440000C9440000C9440000C9440005C
S11300200C9440000C9440000C9440000C9440004C
S11300300C9440000C9440000C9440000C9440003C
S11300400C9440000C9440000C9440000C9440002C
S11300500C9440000C9440000C9440000C9440001C
S11300600C9440000C9440000C94400011241FBEDA
S1130070CFEFD4E0DEBFCDBF0E9442000C9431012B
S11300800C94000060E470E080E00E94500080E086
S11300900E94D60060E071E081E00E945000FFCF32
S11300A0813051F120F0823009F453C00895603456
S11300B07105C1F038F46130710561F06830710583
S11300C069F00895611581E0780779F0611574404D
S11300D081F0089585B5816085BD089585B58260F8
S11300E085BD089583E085BD089585B5846085BD8B
S11300F0089585E085BD089560347105E1F038F414
S11301006130710561F06830710579F00895611509
S113011081E07807A1F061157440B9F00895E1E831
S1130120F0E08081816080830895E1E8F0E08081DF
S113013082608083089583E0809381000895E1E8DC
S1130140F0E0808184608083089585E0809381005D
S1130150089560347105E1F038F46130710561F09F
S11301606830710579F00895611581E07807A1F090
S113017061157440B9F00895E1EBF0E0808181608D
S113018080830895E1EBF0E08081826080830895AC
S113019083E08093B1000895E1EBF0E08081846016
S11301A08083089585E08093B10008958130F9F04B
S11301B018F08230C9F1089580E090E0E1E0F0E0C9
S11301C035B5AF01082E02C0440F551F0A94E2F75B
S11301D025B5BA01632B30E06217730719F425B50E
S11301E0422745BD01968330910551F7089580E07B
S11301F090E0E1E8F0E0A1E0B0E03081AD01082E4C
S113020002C0440F551F0A94E2F72081BA01632B00
S113021030E06217730719F4208142274083019666
S11302208330910551F7089580E090E0E1EBF0E030
S1130230A1E0B0E03081AD01082E02C0440F551F8B
S11302400A94E2F72081BA01632B30E06217730746
S113025019F420814227408301968330910551F798
S10902600895F894FFCF9D
S9030000FC
