S01300004C45445F64696D6D696E672E73726563F8
S11300000C9436000C9440000C9440000C94400076
S11300100C9440000C9440000C9440000C9440005C
S11300200C9440000C9440000C9440000C9440004C
S11300300C9440000C9440000C9440000C944B0031
S11300400C9459000C9440000C9440000C94400013
S11300500C9440000C9440000C9440000C9440001C
S11300600C9440000C9440000C94400011241FBEDA
S1130070CFEFD4E0DEBFCDBF0E9464000C946900D2
S11300800C940000789481E084B984E085BD87E015
S113009080936E0008951F920F920FB60F92112451
S11300A08F9381E085B98F910F900FBE0F901F90B1
S11300B018951F920F920FB60F92112415B80F9036
S11300C00FBE0F901F9018950E94420080EF88BDCC
S10900D0FFCFF894FFCFFE
S9030000FC
