S019000070686173655F636F72726563745F50574D2E7372656356
S11300000C9436000C9440000C9440000C94400076
S11300100C9440000C9440000C9440000C9440005C
S11300200C9440000C9440000C9440000C9440004C
S11300300C9440000C9440000C9440000C9440003C
S11300400C9440000C9440000C9440000C9440002C
S11300500C9440000C9440000C9440000C9440001C
S11300600C9440000C9440000C94400011241FBEDA
S1130070CFEFD4E0DEBFCDBF0E9442000C949300CA
S11300800C9400000E945A0081E00E946100C1E0CB
S113009001C0C0E02FEF81EE94E0215080409040F9
S11300A0E1F700C00000CF5F8C2F0E946100C536CD
S11300B080F7F0CF80E48AB983E884BD83E085BD0E
S11300C008952FEF829FC001112464E670E00E941E
S11300D06B0067BD089597FB072E16F4009407D0B4
S11300E077FD09D00E947F0007FC05D03EF490956F
S11300F081959F4F0895709561957F4F0895AA1B30
S1130100BB1B51E107C0AA1FBB1FA617B70710F0FE
S1130110A61BB70B881F991F5A95A9F78095909530
S10D0120BC01CD010895F894FFCF4F
S9030000FC
