S00B000046414E2E7372656344
S11300000C9436000C9440000C9440000C94400076
S11300100C9440000C9440000C9440000C9440005C
S11300200C9440000C9440000C9440000C9440004C
S11300300C9440000C9440000C9440000C9440003C
S11300400C9440000C9440000C9440000C9440002C
S11300500C9440000C9440000C9440000C9440001C
S11300600C9440000C9440000C94400011241FBEDA
S1130070CFEFD4E0DEBFCDBF0E9449000C944E0008
S11300800C94000080E48AB983E884BD85E085BDD2
S113009008950E94420088EC87BDFFCFF894FFCFFB
S9030000FC
