S010000064697374616E63652E73726563C9
S11300000C9436000C944A000C9448000C9448005C
S11300100C9448000C9448000C9448000C9448003C
S11300200C9448000C9448000C9448000C9448002C
S11300300C9448000C9448000C945D000C94480007
S11300400C9448000C9448000C9448000C9448000C
S11300500C9448000C9448000C9448000C944800FC
S11300600C9448000C9448000C94480011241FBEC2
S1130070CFEFD4E0DEBFCDBF21E0A0E0B1E001C00E
S11300801D92A130B207E1F70E9481000C94980000
S11300900C9400001F920F920FB60F9211248F93AD
S11300A0F89482E089B915BC1BB8109200018F91B5
S11300B00F900FBE0F901F9018951F920F920FB6BE
S11300C00F9211248F93809100018F5F8093000120
S11300D08F910F900FBE0F901F901895519A83E047
S11300E080936900E89A089582E080936E0014BCBE
S11300F078949FE797BD89B980EC84BD81E085BD84
S11301000895CF93DF9300D0CDB7DEB71A8219825A
S11301100E946E0010E280910001811102C00E94D1
S1130120740080910001883CB0F7559A19B9F3CF57
S1070130F894FFCF6D
S9030000FC
