S01100005350495F73657475702E7372656397
S11300000C9436000C9440000C9440000C94400076
S11300100C9440000C9440000C9440000C9440005C
S11300200C9440000C9440000C9440000C9440004C
S11300300C9440000C9440000C9440000C9440003C
S11300400C9440000C9440000C9440000C9440002C
S11300500C9440000C9440000C9440000C9440001C
S11300600C9440000C9440000C94400011241FBEDA
S1130070CFEFD4E0DEBFCDBF0E9442000C94560007
S11300800C9400008FEF8AB987B9219A229A239A97
S1130090259A81E78CBD8EB58DB58EB58CE01EBCDE
S11300A09DB59EB58EBD9DB59EB5F9CFF894FFCF95
S9030000FC
