S01100005350495F73657475702E7372656397
S11300000C9436000C9440000C9440000C94400076
S11300100C9440000C9440000C9440000C9440005C
S11300200C9440000C9440000C9440000C9440004C
S11300300C9440000C9440000C9440000C9440003C
S11300400C9440000C9440000C9440000C9440002C
S11300500C9440000C9440000C9440000C9440001C
S11300600C9440000C9440000C94400011241FBEDA
S1130070CFEFD4E0DEBFCDBF0E9442000C946E00EF
S11300800C9400000E9450000E945D008EEF0E94BC
S1130090630080E00E9463000E9456002A9AFFCF0A
S11300A0229A239A259A81E58CBD08952A9B04C03F
S11300B095B184E0892785B908952A9A8CB5806121
S11300C08CBD8EB50895CF93C82F0E945D00CEBD20
S11300D00DB407FEFDCF8EB5CF910895F894FFCFF0
S9030000FC
