S0120000696E74657272757074732E73726563B2
S11300000C9436000C9440000C9440000C94420074
S11300100C9440000C9440000C9440000C9440005C
S11300200C9440000C9440000C9440000C9440004C
S11300300C9440000C9440000C9440000C9440003C
S11300400C9440000C9440000C9440000C9440002C
S11300500C9440000C9440000C9440000C9440001C
S11300600C9440000C9440000C94400011241FBEDA
S1130070CFEFD4E0DEBFCDBF0E9450000C945A00F5
S11300800C9400001F920F920FB60F9211248F93BD
S11300908FE083B98F910F900FBE0F901F9018952A
S11300A08FE084B981E08093680080E880936B00DE
S10B00B07894FFCFF894FFCF10
S9030000FC
